{
  "contractName": "ComplaintPlatform",
  "abi": [
    {
      "anonymous": false,
      "inputs": [
        {
          "indexed": false,
          "internalType": "uint256",
          "name": "complaintId",
          "type": "uint256"
        },
        {
          "indexed": false,
          "internalType": "address",
          "name": "complainant",
          "type": "address"
        }
      ],
      "name": "ComplaintSubmitted",
      "type": "event"
    },
    {
      "anonymous": false,
      "inputs": [
        {
          "indexed": false,
          "internalType": "uint256",
          "name": "complaintId",
          "type": "uint256"
        },
        {
          "indexed": false,
          "internalType": "string",
          "name": "newStatus",
          "type": "string"
        }
      ],
      "name": "StatusUpdated",
      "type": "event"
    },
    {
      "inputs": [
        {
          "internalType": "uint256",
          "name": "",
          "type": "uint256"
        }
      ],
      "name": "complaints",
      "outputs": [
        {
          "internalType": "address",
          "name": "complainant",
          "type": "address"
        },
        {
          "internalType": "string",
          "name": "encryptedData",
          "type": "string"
        },
        {
          "internalType": "string",
          "name": "status",
          "type": "string"
        }
      ],
      "stateMutability": "view",
      "type": "function"
    },
    {
      "inputs": [
        {
          "internalType": "string",
          "name": "encryptedData",
          "type": "string"
        }
      ],
      "name": "submitComplaint",
      "outputs": [],
      "stateMutability": "nonpayable",
      "type": "function"
    },
    {
      "inputs": [
        {
          "internalType": "uint256",
          "name": "complaintId",
          "type": "uint256"
        },
        {
          "internalType": "string",
          "name": "newStatus",
          "type": "string"
        }
      ],
      "name": "updateStatus",
      "outputs": [],
      "stateMutability": "nonpayable",
      "type": "function"
    },
    {
      "inputs": [
        {
          "internalType": "uint256",
          "name": "complaintId",
          "type": "uint256"
        }
      ],
      "name": "getComplaint",
      "outputs": [
        {
          "internalType": "string",
          "name": "",
          "type": "string"
        },
        {
          "internalType": "string",
          "name": "",
          "type": "string"
        }
      ],
      "stateMutability": "view",
      "type": "function"
    },
    {
      "inputs": [],
      "name": "totalComplaints",
      "outputs": [
        {
          "internalType": "uint256",
          "name": "",
          "type": "uint256"
        }
      ],
      "stateMutability": "view",
      "type": "function"
    }
  ],
  "bytecode": "0x608060405234801561001057600080fd5b50610d83806100206000396000f3fe608060405234801561001057600080fd5b50600436106100575760003560e01c806360d068921461005c5780637e69e91214610078578063a886b398146100aa578063d1b34dd8146100c8578063dee8ae43146100e4575b600080fd5b61007660048036038101906100719190610716565b610115565b005b610092600480360381019061008d9190610795565b610268565b6040516100a193929190610882565b60405180910390f35b6100b26103d2565b6040516100bf91906108d6565b60405180910390f35b6100e260048036038101906100dd91906108f1565b6103de565b005b6100fe60048036038101906100f99190610795565b61044e565b60405161010c92919061094d565b60405180910390f35b600060405180606001604052803373ffffffffffffffffffffffffffffffffffffffff1681526020018381526020016040518060400160405280600981526020017f5375626d69747465640000000000000000000000000000000000000000000000815250815250908060018154018082558091505060019003906000526020600020906003020160009091909190915060008201518160000160006101000a81548173ffffffffffffffffffffffffffffffffffffffff021916908373ffffffffffffffffffffffffffffffffffffffff16021790555060208201518160010190816102029190610b90565b5060408201518160020190816102189190610b90565b5050507f09a8d5fef4fc86ca6d7d6593666ab5efbef914477c88d73319d3f7077592a689600160008054905061024e9190610c91565b3360405161025d929190610cc5565b60405180910390a150565b6000818154811061027857600080fd5b90600052602060002090600302016000915090508060000160009054906101000a900473ffffffffffffffffffffffffffffffffffffffff16908060010180546102c1906109b3565b80601f01602080910402602001604051908101604052809291908181526020018280546102ed906109b3565b801561033a5780601f1061030f5761010080835404028352916020019161033a565b820191906000526020600020905b81548152906001019060200180831161031d57829003601f168201915b50505050509080600201805461034f906109b3565b80601f016020809104026020016040519081016040528092919081815260200182805461037b906109b3565b80156103c85780601f1061039d576101008083540402835291602001916103c8565b820191906000526020600020905b8154815290600101906020018083116103ab57829003601f168201915b5050505050905083565b60008080549050905090565b80600083815481106103f3576103f2610cee565b5b906000526020600020906003020160020190816104109190610b90565b507fdc280875b120650ffe3edf5f724f07fd086361a32c2a387fe34b495f5679e77d8282604051610442929190610d1d565b60405180910390a15050565b6060806000838154811061046557610464610cee565b5b90600052602060002090600302016001016000848154811061048a57610489610cee565b5b90600052602060002090600302016002018180546104a7906109b3565b80601f01602080910402602001604051908101604052809291908181526020018280546104d3906109b3565b80156105205780601f106104f557610100808354040283529160200191610520565b820191906000526020600020905b81548152906001019060200180831161050357829003601f168201915b50505050509150808054610533906109b3565b80601f016020809104026020016040519081016040528092919081815260200182805461055f906109b3565b80156105ac5780601f10610581576101008083540402835291602001916105ac565b820191906000526020600020905b81548152906001019060200180831161058f57829003601f168201915b5050505050905091509150915091565b6000604051905090565b600080fd5b600080fd5b600080fd5b600080fd5b6000601f19601f8301169050919050565b7f4e487b7100000000000000000000000000000000000000000000000000000000600052604160045260246000fd5b610623826105da565b810181811067ffffffffffffffff82111715610642576106416105eb565b5b80604052505050565b60006106556105bc565b9050610661828261061a565b919050565b600067ffffffffffffffff821115610681576106806105eb565b5b61068a826105da565b9050602081019050919050565b82818337600083830152505050565b60006106b96106b484610666565b61064b565b9050828152602081018484840111156106d5576106d46105d5565b5b6106e0848285610697565b509392505050565b600082601f8301126106fd576106fc6105d0565b5b813561070d8482602086016106a6565b91505092915050565b60006020828403121561072c5761072b6105c6565b5b600082013567ffffffffffffffff81111561074a576107496105cb565b5b610756848285016106e8565b91505092915050565b6000819050919050565b6107728161075f565b811461077d57600080fd5b50565b60008135905061078f81610769565b92915050565b6000602082840312156107ab576107aa6105c6565b5b60006107b984828501610780565b91505092915050565b600073ffffffffffffffffffffffffffffffffffffffff82169050919050565b60006107ed826107c2565b9050919050565b6107fd816107e2565b82525050565b600081519050919050565b600082825260208201905092915050565b60005b8381101561083d578082015181840152602081019050610822565b60008484015250505050565b600061085482610803565b61085e818561080e565b935061086e81856020860161081f565b610877816105da565b840191505092915050565b600060608201905061089760008301866107f4565b81810360208301526108a98185610849565b905081810360408301526108bd8184610849565b9050949350505050565b6108d08161075f565b82525050565b60006020820190506108eb60008301846108c7565b92915050565b60008060408385031215610908576109076105c6565b5b600061091685828601610780565b925050602083013567ffffffffffffffff811115610937576109366105cb565b5b610943858286016106e8565b9150509250929050565b600060408201905081810360008301526109678185610849565b9050818103602083015261097b8184610849565b90509392505050565b7f4e487b7100000000000000000000000000000000000000000000000000000000600052602260045260246000fd5b600060028204905060018216806109cb57607f821691505b6020821081036109de576109dd610984565b5b50919050565b60008190508160005260206000209050919050565b60006020601f8301049050919050565b600082821b905092915050565b600060088302610a467fffffffffffffffffffffffffffffffffffffffffffffffffffffffffffffffff82610a09565b610a508683610a09565b95508019841693508086168417925050509392505050565b6000819050919050565b6000610a8d610a88610a838461075f565b610a68565b61075f565b9050919050565b6000819050919050565b610aa783610a72565b610abb610ab382610a94565b848454610a16565b825550505050565b600090565b610ad0610ac3565b610adb818484610a9e565b505050565b5b81811015610aff57610af4600082610ac8565b600181019050610ae1565b5050565b601f821115610b4457610b15816109e4565b610b1e846109f9565b81016020851015610b2d578190505b610b41610b39856109f9565b830182610ae0565b50505b505050565b600082821c905092915050565b6000610b6760001984600802610b49565b1980831691505092915050565b6000610b808383610b56565b9150826002028217905092915050565b610b9982610803565b67ffffffffffffffff811115610bb257610bb16105eb565b5b610bbc82546109b3565b610bc7828285610b03565b600060209050601f831160018114610bfa5760008415610be8578287015190505b610bf28582610b74565b865550610c5a565b601f198416610c08866109e4565b60005b82811015610c3057848901518255600182019150602085019450602081019050610c0b565b86831015610c4d5784890151610c49601f891682610b56565b8355505b6001600288020188555050505b505050505050565b7f4e487b7100000000000000000000000000000000000000000000000000000000600052601160045260246000fd5b6000610c9c8261075f565b9150610ca78361075f565b9250828203905081811115610cbf57610cbe610c62565b5b92915050565b6000604082019050610cda60008301856108c7565b610ce760208301846107f4565b9392505050565b7f4e487b7100000000000000000000000000000000000000000000000000000000600052603260045260246000fd5b6000604082019050610d3260008301856108c7565b8181036020830152610d448184610849565b9050939250505056fea26469706673582212202f1d6fd23bf8bb10188dc6755426c38448c779fa1009db2b3a17d5ff6052a1f864736f6c63430008130033",
  "immutableReferences": {},
  "source": "// SPDX-License-Identifier: MIT\r\npragma solidity 0.8.19;\r\n\r\ncontract ComplaintPlatform {\r\n    struct Complaint {\r\n        address complainant;\r\n        string encryptedData;\r\n        string status;\r\n    }\r\n\r\n    Complaint[] public complaints;\r\n\r\n    event ComplaintSubmitted(uint complaintId, address complainant);\r\n    event StatusUpdated(uint complaintId, string newStatus);\r\n\r\n    function submitComplaint(string memory encryptedData) public {\r\n        complaints.push(Complaint(msg.sender, encryptedData, \"Submitted\"));\r\n        emit ComplaintSubmitted(complaints.length - 1, msg.sender);\r\n    }\r\n\r\n    function updateStatus(uint complaintId, string memory newStatus) public {\r\n        complaints[complaintId].status = newStatus;\r\n        emit StatusUpdated(complaintId, newStatus);\r\n    }\r\n\r\n    function getComplaint(uint complaintId) public view returns (string memory, string memory) {\r\n        return (complaints[complaintId].encryptedData, complaints[complaintId].status);\r\n    }\r\n\r\n    function totalComplaints() public view returns (uint) {\r\n        return complaints.length;\r\n    }\r\n}\r\n",
  "sourcePath": "C:\\meta\\blockchain-complaint-platform\\contracts\\ComplaintPlatform.sol",
  "compiler": {
    "name": "solc",
    "version": "0.8.19+commit.7dd6d404.Emscripten.clang"
  },
  "schemaVersion": "3.4.16",
  "updatedAt": "2024-10-08T17:29:22.355Z",
  "devdoc": {
    "kind": "dev",
    "methods": {},
    "version": 1
  },
  "userdoc": {
    "kind": "user",
    "methods": {},
    "version": 1
  }
}