{
  "contractName": "ComplaintPlatform",
  "abi": [
    {
      "anonymous": false,
      "inputs": [
        {
          "indexed": false,
          "internalType": "uint256",
          "name": "complaintId",
          "type": "uint256"
        },
        {
          "indexed": false,
          "internalType": "address",
          "name": "complainant",
          "type": "address"
        }
      ],
      "name": "ComplaintSubmitted",
      "type": "event"
    },
    {
      "anonymous": false,
      "inputs": [
        {
          "indexed": false,
          "internalType": "uint256",
          "name": "complaintId",
          "type": "uint256"
        },
        {
          "indexed": false,
          "internalType": "string",
          "name": "newStatus",
          "type": "string"
        }
      ],
      "name": "StatusUpdated",
      "type": "event"
    },
    {
      "inputs": [
        {
          "internalType": "uint256",
          "name": "",
          "type": "uint256"
        }
      ],
      "name": "complaints",
      "outputs": [
        {
          "internalType": "address",
          "name": "complainant",
          "type": "address"
        },
        {
          "internalType": "string",
          "name": "encryptedData",
          "type": "string"
        },
        {
          "internalType": "string",
          "name": "status",
          "type": "string"
        }
      ],
      "stateMutability": "view",
      "type": "function"
    },
    {
      "inputs": [
        {
          "internalType": "string",
          "name": "encryptedData",
          "type": "string"
        }
      ],
      "name": "submitComplaint",
      "outputs": [],
      "stateMutability": "nonpayable",
      "type": "function"
    },
    {
      "inputs": [
        {
          "internalType": "uint256",
          "name": "complaintId",
          "type": "uint256"
        },
        {
          "internalType": "string",
          "name": "newStatus",
          "type": "string"
        }
      ],
      "name": "updateStatus",
      "outputs": [],
      "stateMutability": "nonpayable",
      "type": "function"
    },
    {
      "inputs": [
        {
          "internalType": "uint256",
          "name": "complaintId",
          "type": "uint256"
        }
      ],
      "name": "getComplaint",
      "outputs": [
        {
          "internalType": "string",
          "name": "",
          "type": "string"
        },
        {
          "internalType": "string",
          "name": "",
          "type": "string"
        }
      ],
      "stateMutability": "view",
      "type": "function"
    },
    {
      "inputs": [],
      "name": "totalComplaints",
      "outputs": [
        {
          "internalType": "uint256",
          "name": "",
          "type": "uint256"
        }
      ],
      "stateMutability": "view",
      "type": "function"
    }
  ],
  "bytecode": "0x6080604052348015600e575f5ffd5b50610d078061001c5f395ff3fe608060405234801561000f575f5ffd5b5060043610610055575f3560e01c806360d06892146100595780637e69e91214610075578063a886b398146100a7578063d1b34dd8146100c5578063dee8ae43146100e1575b5f5ffd5b610073600480360381019061006e91906106e5565b610112565b005b61008f600480360381019061008a919061075f565b61025d565b60405161009e93929190610829565b60405180910390f35b6100af6103bc565b6040516100bc919061087b565b60405180910390f35b6100df60048036038101906100da9190610894565b6103c7565b005b6100fb60048036038101906100f6919061075f565b610434565b6040516101099291906108ee565b60405180910390f35b5f60405180606001604052803373ffffffffffffffffffffffffffffffffffffffff1681526020018381526020016040518060400160405280600981526020017f5375626d69747465640000000000000000000000000000000000000000000000815250815250908060018154018082558091505060019003905f5260205f2090600302015f909190919091505f820151815f015f6101000a81548173ffffffffffffffffffffffffffffffffffffffff021916908373ffffffffffffffffffffffffffffffffffffffff16021790555060208201518160010190816101f89190610b20565b50604082015181600201908161020e9190610b20565b5050507f09a8d5fef4fc86ca6d7d6593666ab5efbef914477c88d73319d3f7077592a68960015f805490506102439190610c1c565b33604051610252929190610c4f565b60405180910390a150565b5f818154811061026b575f80fd5b905f5260205f2090600302015f91509050805f015f9054906101000a900473ffffffffffffffffffffffffffffffffffffffff16908060010180546102af90610950565b80601f01602080910402602001604051908101604052809291908181526020018280546102db90610950565b80156103265780601f106102fd57610100808354040283529160200191610326565b820191905f5260205f20905b81548152906001019060200180831161030957829003601f168201915b50505050509080600201805461033b90610950565b80601f016020809104026020016040519081016040528092919081815260200182805461036790610950565b80156103b25780601f10610389576101008083540402835291602001916103b2565b820191905f5260205f20905b81548152906001019060200180831161039557829003601f168201915b5050505050905083565b5f5f80549050905090565b805f83815481106103db576103da610c76565b5b905f5260205f20906003020160020190816103f69190610b20565b507fdc280875b120650ffe3edf5f724f07fd086361a32c2a387fe34b495f5679e77d8282604051610428929190610ca3565b60405180910390a15050565b6060805f838154811061044a57610449610c76565b5b905f5260205f2090600302016001015f848154811061046c5761046b610c76565b5b905f5260205f20906003020160020181805461048790610950565b80601f01602080910402602001604051908101604052809291908181526020018280546104b390610950565b80156104fe5780601f106104d5576101008083540402835291602001916104fe565b820191905f5260205f20905b8154815290600101906020018083116104e157829003601f168201915b5050505050915080805461051190610950565b80601f016020809104026020016040519081016040528092919081815260200182805461053d90610950565b80156105885780601f1061055f57610100808354040283529160200191610588565b820191905f5260205f20905b81548152906001019060200180831161056b57829003601f168201915b5050505050905091509150915091565b5f604051905090565b5f5ffd5b5f5ffd5b5f5ffd5b5f5ffd5b5f601f19601f8301169050919050565b7f4e487b71000000000000000000000000000000000000000000000000000000005f52604160045260245ffd5b6105f7826105b1565b810181811067ffffffffffffffff82111715610616576106156105c1565b5b80604052505050565b5f610628610598565b905061063482826105ee565b919050565b5f67ffffffffffffffff821115610653576106526105c1565b5b61065c826105b1565b9050602081019050919050565b828183375f83830152505050565b5f61068961068484610639565b61061f565b9050828152602081018484840111156106a5576106a46105ad565b5b6106b0848285610669565b509392505050565b5f82601f8301126106cc576106cb6105a9565b5b81356106dc848260208601610677565b91505092915050565b5f602082840312156106fa576106f96105a1565b5b5f82013567ffffffffffffffff811115610717576107166105a5565b5b610723848285016106b8565b91505092915050565b5f819050919050565b61073e8161072c565b8114610748575f5ffd5b50565b5f8135905061075981610735565b92915050565b5f60208284031215610774576107736105a1565b5b5f6107818482850161074b565b91505092915050565b5f73ffffffffffffffffffffffffffffffffffffffff82169050919050565b5f6107b38261078a565b9050919050565b6107c3816107a9565b82525050565b5f81519050919050565b5f82825260208201905092915050565b8281835e5f83830152505050565b5f6107fb826107c9565b61080581856107d3565b93506108158185602086016107e3565b61081e816105b1565b840191505092915050565b5f60608201905061083c5f8301866107ba565b818103602083015261084e81856107f1565b9050818103604083015261086281846107f1565b9050949350505050565b6108758161072c565b82525050565b5f60208201905061088e5f83018461086c565b92915050565b5f5f604083850312156108aa576108a96105a1565b5b5f6108b78582860161074b565b925050602083013567ffffffffffffffff8111156108d8576108d76105a5565b5b6108e4858286016106b8565b9150509250929050565b5f6040820190508181035f83015261090681856107f1565b9050818103602083015261091a81846107f1565b90509392505050565b7f4e487b71000000000000000000000000000000000000000000000000000000005f52602260045260245ffd5b5f600282049050600182168061096757607f821691505b60208210810361097a57610979610923565b5b50919050565b5f819050815f5260205f209050919050565b5f6020601f8301049050919050565b5f82821b905092915050565b5f600883026109dc7fffffffffffffffffffffffffffffffffffffffffffffffffffffffffffffffff826109a1565b6109e686836109a1565b95508019841693508086168417925050509392505050565b5f819050919050565b5f610a21610a1c610a178461072c565b6109fe565b61072c565b9050919050565b5f819050919050565b610a3a83610a07565b610a4e610a4682610a28565b8484546109ad565b825550505050565b5f5f905090565b610a65610a56565b610a70818484610a31565b505050565b5b81811015610a9357610a885f82610a5d565b600181019050610a76565b5050565b601f821115610ad857610aa981610980565b610ab284610992565b81016020851015610ac1578190505b610ad5610acd85610992565b830182610a75565b50505b505050565b5f82821c905092915050565b5f610af85f1984600802610add565b1980831691505092915050565b5f610b108383610ae9565b9150826002028217905092915050565b610b29826107c9565b67ffffffffffffffff811115610b4257610b416105c1565b5b610b4c8254610950565b610b57828285610a97565b5f60209050601f831160018114610b88575f8415610b76578287015190505b610b808582610b05565b865550610be7565b601f198416610b9686610980565b5f5b82811015610bbd57848901518255600182019150602085019450602081019050610b98565b86831015610bda5784890151610bd6601f891682610ae9565b8355505b6001600288020188555050505b505050505050565b7f4e487b71000000000000000000000000000000000000000000000000000000005f52601160045260245ffd5b5f610c268261072c565b9150610c318361072c565b9250828203905081811115610c4957610c48610bef565b5b92915050565b5f604082019050610c625f83018561086c565b610c6f60208301846107ba565b9392505050565b7f4e487b71000000000000000000000000000000000000000000000000000000005f52603260045260245ffd5b5f604082019050610cb65f83018561086c565b8181036020830152610cc881846107f1565b9050939250505056fea2646970667358221220990dad90bd839ed0da56af1e65655b13bb55bff010c3ad66fe10c9e62c401a7664736f6c634300081b0033",
  "immutableReferences": {},
  "source": "// SPDX-License-Identifier: MIT\r\npragma solidity ^0.8.27;\r\n\r\ncontract ComplaintPlatform {\r\n    struct Complaint {\r\n        address complainant;\r\n        string encryptedData;\r\n        string status;\r\n    }\r\n\r\n    Complaint[] public complaints;\r\n\r\n    event ComplaintSubmitted(uint complaintId, address complainant);\r\n    event StatusUpdated(uint complaintId, string newStatus);\r\n\r\n    function submitComplaint(string memory encryptedData) public {\r\n        complaints.push(Complaint(msg.sender, encryptedData, \"Submitted\"));\r\n        emit ComplaintSubmitted(complaints.length - 1, msg.sender);\r\n    }\r\n\r\n    function updateStatus(uint complaintId, string memory newStatus) public {\r\n        complaints[complaintId].status = newStatus;\r\n        emit StatusUpdated(complaintId, newStatus);\r\n    }\r\n\r\n    function getComplaint(uint complaintId) public view returns (string memory, string memory) {\r\n        return (complaints[complaintId].encryptedData, complaints[complaintId].status);\r\n    }\r\n\r\n    function totalComplaints() public view returns (uint) {\r\n        return complaints.length;\r\n    }\r\n}\r\n",
  "sourcePath": "C:\\meta\\blockchain-complaint-platform\\contracts\\ComplaintPlatform.sol",
  "compiler": {
    "name": "solc",
    "version": "0.8.27+commit.40a35a09.Emscripten.clang"
  },
  "schemaVersion": "3.4.16",
  "updatedAt": "2024-10-04T03:39:04.562Z",
  "devdoc": {
    "kind": "dev",
    "methods": {},
    "version": 1
  },
  "userdoc": {
    "kind": "user",
    "methods": {},
    "version": 1
  }
}